:1000000091C10000BFC10000BDC10000BBC1000024
:10001000B9C10000B7C10000B5C10000B3C1000004
:10002000B1C10000AFC10000ADC10000ABC1000014
:10003000A9C10000A7C10000A5C10000A3C1000024
:10004000A1C100009FC100009DC100009BC1000034
:1000500099C1000097C1000095C10000E2C70000EF
:1000600091C10000A8C700007DC700008BC100003F
:1000700089C1000087C1000085C1000083C1000064
:1000800081C100007FC100007DC100007BC1000074
:1000900079C1000077C1000075C1000073C1000084
:1000A00071C100006FC100006DC100006BC1000094
:1000B00069C1000067C1000065C1000063C10000A4
:1000C00061C100005FC100005DC100005BC10000B4
:1000D00059C1000057C1000055C1000053C10000C4
:1000E00051C100004E414E494E495459494E46CDEA
:1000F000CCCC3D0AD7233C17B7D13877CC2B3295DF
:1001000095E6241FB14F0A000020410000C84200BC
:10011000401C4620BCBE4CCA1B0E5AAEC59D740086
:10012000407A10F35A00A0724E18090010A5D4E8C6
:100130000000E87648170000E40B54020000CA9A59
:100140003B000000E1F505000080969800000040AB
:10015000420F000000A086010000001027000000F0
:1001600000E803000000006400000000000A000036
:100170000000000100000000002C76D888DC674FEA
:100180000823DFC1DFAE59E1B1B796E5E3E453C61A
:100190003AE651997696E8E6C28426EB898C9B6212
:1001A000ED407C6FFCEFBC9C9F40F2BAA56FA5F4BC
:1001B00090055A2AF75C936B6CF9676DC11BFCE0E4
:1001C000E40D47FEF520E6B500D0ED902E03009437
:1001D0003577050080841E080000204E0A000000CC
:1001E000C80C333333330F986E12831141EF8D21D6
:1001F00014893BE65516CFFEE6DB18D1844B381B3D
:10020000F77C1D901DA4BBE424203284725E228101
:1002100000C9F124ECA1E53D2700002100240027BE
:10022000002A002D00300033000101000004010706
:10023000010A0100002200250028002B002E0031B9
:1002400000340002010000050108010B010505054D
:1002500005070508080808020202020A0A0808043D
:10026000040404010101010101010103030303036B
:10027000030303040707070C0C0C0C0C0C0C0C02FA
:1002800002020206060606060606060B0B0B0B0B01
:100290000B0B0B01021020200808102040102040FA
:1002A000800201020108040201010204081020403A
:1002B0008080402010080402018004020180402058
:1002C0001008040201080402010102040810204081
:1002D00080010204081020408000000A0B02090C73
:1002E0000D0E0807030401000000000000000000DC
:1002F00000000000000000000000000000000000FE
:1003000000000000001211100000000000000000BA
:1003100000000000000000000000000000000000DD
:1003200069084A0B11241FBECFEFD1E2DEBFCDBF5B
:1003300000E00CBF24E0AAEAB3E001C01D92AD3793
:10034000B207E1F713E0A0E0B2E0E6E6F8E200E091
:100350000BBF02C007900D92AA3AB107D9F711E07E
:10036000C1E9D1E000E006C021970109802FFE011C
:100370000E940012C039D10780E00807A9F7DFD634
:100380000C9422143DCE0895AF92BF92CF92DF928B
:10039000EF92FF920F931F93CF93DF936C017B013A
:1003A0008B01040F151FEB015E01AE18BF08C017CB
:1003B000D10759F06991D601ED91FC910190F0813E
:1003C000E02DC6011995892B79F7C501DF91CF91F1
:1003D0001F910F91FF90EF90DF90CF90BF90AF9063
:1003E0000895FC0144815581608171818EEC93E018
:1003F000CBCFFC01538D448D252F30E0842F90E02E
:10040000821B930B541710F0CF960895019708950F
:10041000FC01918D828D981761F0A28DAE0FBF2FD8
:10042000B11D5D968C91928D9F5F9F73928F90E02E
:1004300008958FEF9FEF08952FB7F8948091CA0326
:100440009091CB03A091CC03B091CD032FBF8093AB
:10045000D6039093D703A093D803B093D9038EEC1F
:1004600093E0D6DF97FF26C02FB7F8948091CA0398
:100470009091CB03A091CC03B091CD032FBF4091BD
:10048000D6035091D7036091D8037091D903841B90
:10049000950BA60BB70B4091D2035091D3036091FB
:1004A000D4037091D50384179507A607B707B8F250
:1004B0008FEF9FEF0895FC01918D828D981731F099
:1004C000828DE80FF11D858D90E008958FEF9FEFED
:1004D0000895FC01918D228D892F90E0805C9F4FC3
:1004E000821B91098F73992708958EEC93E0F1DFB9
:1004F00021E0892B09F420E0822F0895FC01A48DCE
:10050000A80FB92FB11DA35ABF4F2C91848D90E035
:1005100001968F739927848FA689B7892C93A08918
:10052000B1898C91837080648C93938D848D9813A2
:1005300006C00288F389E02D80818F7D8083089535
:10054000EF92FF920F931F93CF93DF93EC0181E023
:10055000888F9B8D8C8D98131AC0E889F9898081CA
:1005600085FF15C09FB7F894EE89FF896083E889FD
:10057000F98980818370806480839FBF81E090E0EF
:10058000DF91CF911F910F91FF90EF900895F62E7C
:100590000B8D10E00F5F1F4F0F731127E02E8C8D16
:1005A0008E110BC00FB607FCFACFE889F98980815C
:1005B00085FFF5CFCE01A2DFF2CFEB8DEC0FFD2F43
:1005C000F11DE35AFF4FF0829FB7F8940B8FEA8931
:1005D000FB8980818062D0CFCF93DF93EC01888D3F
:1005E0008823B1F0AA89BB89E889F9898C9185FDB6
:1005F00003C0808186FD0CC00FB607FCF7CF8C913D
:1006000085FFF2CF808185FFEDCFCE0177DFEACF86
:10061000DF91CF91089580E090E0892B21F065DF94
:1006200081110E94000080E090E0892B49F080E079
:1006300090E0892B29F00E94000081110E940000A7
:1006400080E090E0892B49F080E090E0892B29F050
:100650000E94000081110E94000080E090E0892B40
:1006600049F080E090E0892B29F00E940000811180
:100670000C9400000895282F30E0F901E752FD4F57
:100680009491F901ED56FD4F4491235B3D4FF901E3
:100690002491222309F435C0992311F1915092310C
:1006A000F8F4E92FF0E08827E75AFC4F8F4F0C94BD
:1006B00000128A038E036B03820386037003910387
:1006C00097039B03A103A503A903AF03B30370031F
:1006D000B703BD03C103809180008F7780938000B2
:1006E000E22FF0E0EE0FFF1FED5CFD4FA591B491FE
:1006F0008FB7F894EC91611148C040954E234C930C
:100700008FBF0895809180008F7DE8CF8091800019
:10071000877FE4CF84B58F7784BDE2CF84B58F7DAA
:10072000FBCF8091B0008F778093B000D9CF8091BC
:10073000B0008F7DF9CF809190008F7780939000EB
:10074000CFCF809190008F7DF9CF80919000877FEF
:10075000F5CF8091A0008F778093A000C1CF8091CA
:10076000A0008F7DF9CF8091A000877FF5CF809189
:1007700020018F7780932001B3CF809120018F7D5E
:10078000F9CF80912001877FF5CF4E2BB8CFCF9343
:10079000DF9390E0FC01ED56FD4F2491835B9D4F6C
:1007A000FC0184918823D1F090E0880F991FFC010F
:1007B000E75EFD4FA591B491FC01ED5CFD4FC59145
:1007C000D49161110EC09FB7F8948C91E22FE095FF
:1007D0008E238C932881E223E8839FBFDF91CF9102
:1007E00008958FB7F894EC91E22BEC938FBFF6CF7E
:1007F0003FB7F8948091B2039091B303A091B403F2
:10080000B091B50326B5A89B05C02F3F19F00196FE
:10081000A11DB11D3FBFBA2FA92F982F8827BC015A
:10082000CD01620F711D811D911D42E0660F771F82
:10083000881F991F4A95D1F708958EBD00000DB409
:1008400007FEFDCF8EB50895FC0101900020E9F769
:100850003197AF01481B590BBC018EEC93E094CD4E
:100860008F929F92AF92BF920F931F93CF93DF937C
:10087000CDB7DEB7A1970FB6F894DEBF0FBECDBFE0
:1008800019A2423008F44AE08E010F5D1F4F842EFA
:10089000912CB12CA12CA50194010E94DE11E62F10
:1008A000B901CA01EA30ECF4E05DD801EE938D01A4
:1008B000232B242B252B79F790E080E0109711F063
:1008C000CD01C2DFA1960FB6F894DEBF0FBECDBF3B
:1008D000DF91CF911F910F91BF90AF909F908F901C
:1008E0000895E95CE2CFCF93DF93AEDFEC0188E1BE
:1008F00092E0AADF8C0F9D1FDF91CF9108954F9258
:100900005F926F927F928F929F92AF92BF92CF929F
:10091000DF92EF92FF920F931F93CF936B017C01B5
:10092000742EAC019B010E94DA11882391F08BE1B7
:1009300092E0CF911F910F91FF90EF90DF90CF90B9
:10094000BF90AF909F908F907F906F905F904F90EF
:100950007BCF46015701E894B7F82FEF3FEF4FE701
:100960005FE7C501B4010E94DA1181110DC02FEFBC
:100970003FEF4FE75FE7C501B4010E94A30F1816D0
:100980001CF48FE192E0D5CF2FEF3FEF4FE75FE40C
:10099000C701B6010E94D61118161CF483E292E03A
:1009A000C8CF2FEF3FEF4FE75FECC701B6010E94C2
:1009B000A30F87FDF3CF20E030E0A901C701B60106
:1009C0000E94A30F10E000E087FF09C06DE28EECEB
:1009D00093E0B6DD8C01F7FAF094F7F8F094C0E0FC
:1009E00060E070E080E09FE37C1641F020E030E0C2
:1009F00040E251E40E943D11CF5FF6CFA70196017E
:100A00000E94D9102B013C010E94AA114B015C01EC
:100A10004AE026DF7C01E00EF11ECC23B1F1C501D6
:100A2000B4010E94A70F9B01AC01C301B2010E9457
:100A3000D8104B015C016EE28EEC93E081DDE80E94
:100A4000F91EC15010F120E030E040E251E4C50150
:100A5000B4010E9408102B013C010E94AA114B0115
:100A6000B12CA12C4AE0C501B401FADEE80EF91E52
:100A7000C501B4010E94A70F9B01AC01C301B201E3
:100A80000E94D8104B015C01DCCFC701CF911F91B0
:100A90000F91FF90EF90DF90CF90BF90AF909F901D
:100AA0008F907F906F905F904F900895CF93DF93DA
:100AB00098DCEC0188E192E0C7DE8C0F9D1FDF918E
:100AC000CF910895CF93DF93EC01888199810097AE
:100AD00011F00E94A412198218821D821C821B82AE
:100AE0001A82DF91CF910895FC0180819181009756
:100AF00011F00C94A41208950F931F93CF93DF93DA
:100B0000EC0188819981009759F02A813B81261751
:100B1000370730F081E0DF91CF911F910F91089559
:100B20008B016F5F7F4F0E942D13009759F09983BF
:100B300088831B830A832C813D81232B59F7FC0179
:100B40001082E8CF80E0E7CFEF92FF920F931F93E0
:100B5000CF93DF936115710541F480E0DF91CF9170
:100B60001F910F91FF90EF90089541155105A9F045
:100B70007B01EC010C811D81040F151FB801BCDF46
:100B8000882359F3288139818C819D81B701820F97
:100B9000931F0E941B141D830C8381E0DFCFCF9332
:100BA000DF93EC01FB0101900020E9F73197AF01E1
:100BB000461B570BC9DF811102C0CE0183DFCE0176
:100BC000DF91CF910895CF93DF93EC01FB01448136
:100BD000558160817181B8DF811102C0CE0172DF61
:100BE000CE01DF91CF910895EF92FF920F931F9363
:100BF000CF93DF93EC017B018A01BA017DDF811184
:100C00000AC0CE015FDFCE01DF91CF911F910F911E
:100C1000FF90EF9008951D830C83B701888199811F
:100C20000E941B14F0CFEF92FF920F931F93CF936C
:100C3000DF93CDB7DEB762970FB6F894DEBF0FBE75
:100C4000CDBF8C01CB01F801118210821382128278
:100C5000158214824AE09E012F5F3F4F7901B9014E
:100C600065D5F70101900020E9F73197AF014E19E2
:100C70005F09B701C801B8DF62960FB6F894DEBF0E
:100C80000FBECDBFDF91CF911F910F91FF90EF90DD
:100C90000895FC011182108213821282158214823F
:100CA000FB0101900020E9F73197AF01461B570B7C
:100CB0009BCFEF92FF920F931F93CF93DF93CDB70C
:100CC000DEB7A1970FB6F894DEBF0FBECDBF7C0193
:100CD000CB01BA01F70111821082138212821582B0
:100CE000148242E0420F8E010F5F1F4FD9D400974C
:100CF000C1F0FC0101900020E9F73197AF01481BDA
:100D0000590BBC01C70170DFA1960FB6F894DEBF86
:100D10000FBECDBFDF91CF911F910F91FF90EF904C
:100D20000895C701CFDEF0CF8F929F92AF92BF920E
:100D3000CF92DF92EF92FF926B017C0187E292E00B
:100D400083DD4AE0C701B601F7FE0CC06DE28EEC10
:100D500093E0F6DB66277727CB016C197D098E09B6
:100D60009F094AE07DDDC701B6010E94A90F20E07E
:100D700030E040EA51E40E94081020EF3FEF4FE7D7
:100D800059E40E943D1120E030E040E251E40E942D
:100D9000D8106093AD037093AE038093AF0390932C
:100DA000B00360E085E367DC8D2C9E2CAF2CBB2468
:100DB000A7FCBA948092AC03C092AB0380E18E256D
:100DC0003CDD882D3ADD8C2D38DD61E085E353DC98
:100DD00080E392E039DD6091AD037091AE038091C4
:100DE000AF039091B00344E08ADD8DE392E07BDDB8
:100DF00080E492E0FF90EF90DF90CF90BF90AF90B3
:100E00009F908F9058C1CF93E091DE03F091DF0364
:100E100082E08083E091DE03F091DF031082E091B5
:100E2000DA03F091DB031082E091DC03F091DD0343
:100E300080E180831092E603E091E203F091E30306
:100E400086E08083E091E003F091E103808180619E
:100E50008083E091E003F091E103808188608083EA
:100E6000E091E003F091E103808180688083E0916C
:100E7000E003F091E10380818F7D80838BE592E038
:100E800032DD61E085E383DC60E082E380DC61E009
:100E900082E3F1DB61E085E3EEDBCFB7F89480918C
:100EA000AA03811123C0E2E8F2E08491E8ECF2E0C9
:100EB0009491E82FF0E0EE0FFF1FE75EFD4FA59144
:100EC000B491EC91E92319F461E085E3D4DB61E0AE
:100ED00085E35DDC8CB580618CBD8CB580648CBD98
:100EE00061E084E354DC61E083E351DC8091AA0398
:100EF0008F5F8093AA03CFBF88E58CBD81E08DBD55
:100F000060E085E3B8DB80E298DC80E096DC82E399
:100F100094DC61E085E3AFDB8FE692E095DC42E0B4
:100F200060E270E080E090E09BDC8EE292E08CDC9E
:100F300042E060E070E0CB0193DC8EE292E084DC82
:100F400042E062E170E080E090E08ADC88E192E0DB
:100F50007BDC60E070E088E090E0E6DE83E892E031
:100F6000CF91C1CC1F920F920FB60F9211240BB6E6
:100F70000F922F933F934F935F936F937F938F9332
:100F80009F93AF93BF93EF93FF938EEC93E0B6DA0A
:100F9000FF91EF91BF91AF919F918F917F916F9151
:100FA0005F914F913F912F910F900BBE0F900FBE0D
:100FB0000F901F9018951F920F920FB60F92112449
:100FC0000BB60F922F938F939F93EF93FF93E09124
:100FD000DE03F091DF038081E091E403F091E5030B
:100FE00082FD1DC090818091E7038F5F8F732091F8
:100FF000E803821741F0E091E703F0E0E253FC4F91
:10100000958F8093E703FF91EF919F918F912F919F
:101010000F900BBE0F900FBE0F901F901895808100
:10102000F2CF1F920F920FB60F9211242F933F937E
:101030008F939F93AF93BF938091CA039091CB03FB
:10104000A091CC03B091CD033091B10323E0230FE5
:101050002D3758F50196A11DB11D2093B103809342
:10106000CA039093CB03A093CC03B093CD0380919C
:10107000B2039091B303A091B403B091B50301966C
:10108000A11DB11D8093B2039093B303A093B40349
:10109000B093B503BF91AF919F918F913F912F91E5
:1010A0000F900FBE0F901F90189526E8230F029601
:1010B000A11DB11DD2CF892B49F081EA93E5909310
:1010C0007804809377048FEF9FEF089590E080E09D
:1010D0000895EEECF3E01382128288EE93E0A0E034
:1010E000B0E084839583A683B7838AE092E09183FE
:1010F000808385EC90E09587848784EC90E09787E7
:10110000868780EC90E0918B808B81EC90E0938BD4
:10111000828B82EC90E0958B848B86EC90E0978BB1
:10112000868B118E128E138E148E6AE172E081E727
:1011300094E0AFDD61EE72E08BE694E0AACDCF9350
:10114000DF93CDB7DEB768970FB6F894DEBF0FBE5A
:10115000CDBF789484B5826084BD84B5816084BD40
:1011600085B5826085BD85B5816085BD80916E0045
:10117000816080936E001092810080918100826076
:1011800080938100809181008160809381008091B3
:1011900080008160809380008091B10084608093A2
:1011A000B1008091B00081608093B0008091910087
:1011B0008260809391008091910081608093910082
:1011C000809190008160809390008091A100826066
:1011D0008093A1008091A10081608093A100809103
:1011E000A00081608093A0008091210182608093A3
:1011F0002101809121018160809321018091200152
:1012000081608093200180917A00846080937A00CD
:1012100080917A00826080937A0080917A00816068
:1012200080937A0080917A00806880937A0010928F
:10123000C100E9DD8EEC93E04CD9181619060CF0CC
:10124000A1C16AE172E0CE01019623DDF5D897FDD8
:101250000BC08F83188641E050E0BE01695F7F4F6D
:10126000CE01019671DCF2CF8091710490917204ED
:10127000009709F43BC169817A816115710509F410
:1012800033C140917304509174042D813E81421703
:10129000530708F429C10E941B148D819E819093ED
:1012A0007604809375041E821D82CE0101961CDC9B
:1012B000E0907104F090720460E070E0CB01E11402
:1012C000F10411F0C7010CD244D64B015C018092AD
:1012D000C6039092C703A092C803B092C90380913D
:1012E000750490917604892B09F4A4C169EE72E02B
:1012F000C7010E9412148C01892B09F045C110927C
:10130000C2031092C3031092C4031092C50380EF6E
:101310009FEFAFE7B9E48093BE039093BF03A09320
:10132000C003B093C10380E090E0A0E2B7E48093F3
:10133000BA039093BB03A093BC03B093BD0380E0BA
:1013400090E0A8ECB2E48093B6039093B703A09327
:10135000B803B093B90320E040E050E060E277E4E6
:10136000CE014396A6DC4091BE035091BF0360912D
:10137000C0037091C10320E0CE010D969ADC40912C
:10138000C2035091C3036091C4037091C50320E070
:10139000CE0107968EDC6EEE72E0CE01019679DC0E
:1013A000BE01695F7F4FCE0101960DDC6EEF72E0EA
:1013B000F6DBBE01635F7F4F06DC63E073E0EFDBCB
:1013C000BE016D5E7F4FFFDB0CD8CE0101968CDB3A
:1013D000CE01079689DBCE010D9686DBCE014396C2
:1013E00083DBC090B603D090B703E090B803F090D1
:1013F000B90320E030E0A901C701B601D7D718161C
:101400000CF08BC022E0B701A601CE01079651DC9B
:101410006FE073E0CE0101963CDCBE01695F7F4F57
:10142000CE010196D0DB6BE173E0B9DB3FDBCE018F
:1014300001965ADBCE01079657DBC090C203D090CD
:10144000C303E090C403F090C503A7019601609127
:10145000BE037091BF038091C0039091C103A6D7D2
:10146000B80187FD7AC0CE010796DDDB6FE173E03E
:10147000CE0101960EDCBE01695F7F4FCE01019661
:10148000A2DB6EE272E08BDB0E94F101CE010196DD
:101490002BDBCE01079628DBC701B60156D744DC0B
:1014A0006091B6037091B7038091B8039091B9032E
:1014B00051D74B015C019CD92B013C018114910453
:1014C000A104B10409F03EC02091BA033091BB03DE
:1014D0004091BC035091BD03C701B6016AD66B01B0
:1014E0007C010F5F1F4FB1CF0E94A41289819A81A6
:1014F00090937204809371048B819C819093740407
:10150000809373048D819E819093760480937504FB
:101510001A8219821C821B82C6CE8AE192E0E3D92C
:101520008CCF91E0891A9108A108B108A8EE4A0E63
:10153000A3E05A1E611C711C81149104A104B10422
:1015400009F4BCCF55D96419750986099709683E15
:1015500073408105910528F7B1CFCE01079663DB73
:1015600061E273E0CE01019694DBBE01695F7F4FBB
:10157000CE01019628DB9ADACE010196B5DACE01CA
:101580000796B2DA48D856CE6BE473E0C7010E94E2
:101590001214892B59F481E593E056D981E794E040
:1015A00085DA8AE192E09FD92EDCECCF20E030E0B2
:1015B000A901C501B401C7D4811145C067E573E035
:1015C000C7010E941214892B09F43DC08CE593E0F9
:1015D0008AD9D8CF60E070E0CB0157C020E030E07E
:1015E000A901C701B601AFD487FD09C020EF3FEFC5
:1015F0004FE759E4C701B601D9D6181624F442E0E2
:10160000C701B60143C020E030E0A901C701B6011F
:10161000CDD687FDB7CF20EF3FEF4FE759E4C701A5
:10162000B60191D418160CF4ADCFC701B6018DD612
:101630007BDBA8CF20E030E0A901C501B40183D451
:10164000882309F4C3CF60E070E0CB01E114F1041A
:1016500011F0C70142D0C090C603D090C703E090FC
:10166000C803F090C903A7019601A2D520E030E09D
:10167000A90169D4882309F4B1CF809171049091B4
:101680007204009709F4A6CF28D042E038D989E542
:1016900093E09ECF8BE694E027DA81E794E024CABA
:1016A000EF920F931F93CF93DF93E80134E047FD50
:1016B00034E1042E000C550B57FF03C051954195A2
:1016C0005109E32E022F242FAE0168D0CE01DF9105
:1016D000CF911F910F91EF90089566277727D6C17C
:1016E0001F93FC0199278827BC01E89411911032BF
:1016F000E9F3193010F01E30C8F31B3249F01D32E7
:1017000041F4689405C01CD0610F711D811D911DAD
:10171000119110531A30B8F33EF49095809570955E
:1017200061957F4F8F4F9F4F1F910895BB274A3080
:1017300031F4992322F4BDE2909581959F4F16C014
:10174000592F482F372F262F660F771F881F991F75
:10175000660F771F881F991F620F731F841F951FC5
:10176000660F771F881F991F0895BB27FB01552718
:10177000AA27880F991FAA1FA41710F0A41B8395EE
:101780005051B9F7A05DAA3308F0A95DA193009765
:1017900079F7B111B1931192CB01C5C38F929F928A
:1017A000AF92BF92CF92DF92EF92FF920F931F936F
:1017B000CF93DF9300D000D000D0CDB7DEB76A0161
:1017C000F22EB02E102FFBE3AF2EA01608F41BE371
:1017D0001F5F012F27E0AE014F5F5F4FACD2BC010E
:1017E0008981982F9970913009F44EC09BE2E1FCF9
:1017F00004C09E2D9170E0FC49C05E2D5071E82F11
:10180000E87083FF55C084E0911101C083E0EF2DA3
:10181000E81B8F1508F0E0E0D6018E2F20E255235B
:10182000C9F1992329F0D6019C93C60101966C0158
:1018300096012D5F3F4FE2FE33C08EE4D6018C93BC
:1018400091E411969C93119712968C93D9018E2F47
:1018500090E281112AC0E20FF32FF11D10828EEF6A
:101860009FEF29960FB6F894DEBF0FBECDBFDF9174
:10187000CF911F910F91FF90EF90DF90CF90BF908D
:10188000AF909F908F9008959DE2B7CF90E2B5CF33
:101890002D9381508111FCCFCE0ED11CE0E0C1CF41
:1018A0008EE6D6018C9391E6CCCF9D938150D1CF1B
:1018B000482F447082FF3DC084E0911101C083E055
:1018C0008F1510F4EF2DE81BD6018E2F20E2552343
:1018D00009F1992329F0D6019C93C60101966C0168
:1018E00096012D5F3F4FE2FE1BC089E4D6018C9329
:1018F0008EE411968C93119786E412968C93D901FD
:101900008E2F90E2882309F4A6CF9D938150FACFC1
:101910002D9381508111FCCFCE0ED11CE0E0D9CFA8
:1019200089E6D6018C938EE611968C93119786E604
:10193000E4CF9B0177FF02C030E020E0A1E0B0E0FF
:10194000911102C0B0E0A0E0F9013196AE0FBF1FC7
:101950008B2C912CBB2009F461C05401EFEFAE1A1F
:10196000BE0AAA0DBB1DFA161B0619F014F04F2D66
:101970004A1B511188C0E3FC59C07601A42FB0E284
:10198000A1114FC0C40ED11C992309F45BC040E0E3
:10199000D6011196F60190836D01552309F448C0D4
:1019A000012F060F9A81582F507184FF03C0913385
:1019B00009F4015010160CF047C0093008F008E097
:1019C000EEE2FE2E5B01A01AB1088501919481948C
:1019D00091082F3F320729F4D601FC92F601319687
:1019E0006F016217730794F1021713077CF5DB018F
:1019F000A21BB30BAA24A394B12CAC0EBD1EAA0D3E
:101A0000BB1D11968C9121503109D60111962815D4
:101A10003905F4F0F60180836D01DBCFB12CA12CE8
:101A2000A0CFF701B1937F01A150AACF9111B0CF00
:101A3000D601942F50E302C05D9391509111FCCFD9
:101A4000C40ED11C40E0ACCF01E0BACF80E3DBCFC5
:101A50006217730731F4963388F4953311F45523E4
:101A600069F0F6018083FD01842F90E2811108C0A6
:101A7000A40FB11D1C9290E080E0F3CE81E3F1CF82
:101A800091938150F3CF911183CF8ACF8F929F9200
:101A9000AF92BF92CF92DF92EF92FF920F931F937C
:101AA000CF93DF935C017B016115710519F0DB01B8
:101AB0008D939C9385010F5F1F4FF501D0818D2F72
:101AC00090E011D26C01892BA9F5DD32A9F50F5FE9
:101AD0001F4FD5011196DC91C1E05801F1E0AF1A1A
:101AE000B10843E050E06CEE70E0C50104D2892BF0
:101AF00061F5680182E0C80ED11C45E050E067EE58
:101B000070E0C601F8D1892B21F4680197E0C90E75
:101B1000D11CE114F10419F0D701CD92DC9260E000
:101B200070E080E89FEFC111F9C060E070E080E8EC
:101B30009FE7F4C05801BECFDB3229F485010E5F68
:101B40001F4FF501D181C0E0C8CF43E050E064EE03
:101B500070E0C501D0D1892BE9F0F80110E000E078
:101B600020E030E0A9015F01B0ED8B2E8D0E89E001
:101B70008815C0F19C2E689491F88C2F8870C2FF54
:101B800016C0811102C00F5F1F4F3196D501DC9145
:101B9000C92DE9CFE114F10429F00E5F1F4FF701C1
:101BA0001183008360E070E080EC9FE7B7C088237A
:101BB00011F001501109A5E0B0E0E1D29B01AC01A8
:101BC000220F331F441F551F280D311D411D511D6C
:101BD000283999E93907490799E15907B0F2C660F0
:101BE0009C2ED3CFAEEF8A1206C0C3FD3CC09C2E04
:101BF000689493F8CACFDF7DD534A9F580818D3202
:101C000039F4C061DF011296818162E070E006C0A4
:101C1000DF018B32C1F3119661E070E080535D010A
:101C2000A61AB70A8A30F8F4E0E8CE16ECE0DE0631
:101C30005CF4B601660F771F660F771FC60ED71EBE
:101C4000CC0CDD1CC80ED11C5D01FFEFAF1ABF0A22
:101C50008C9180538A3098F1C4FF03C0D194C19411
:101C6000D1080C0D1D1DC1FF09C0E114F10431F0B4
:101C700081E0A81AB108D701AD92BC92CA01B9019E
:101C800066D1C370C33009F490584B015C0120E069
:101C900030E0A90158D1882309F43EC0CBE1D1E05E
:101CA00017FF05C0119501951109C3E0D1E06E0140
:101CB000B8E1CB1AD10880E2E82EF12C0EC0D50194
:101CC000B3CFFE0125913591459154910E191F090D
:101CD000C501B4019DD14B015C01D501C4010E15B4
:101CE0001F057CF72497F594E794CC16DD06A9F739
:101CF0008A2F880F8B2F881F8F3F41F020E030E024
:101D0000A901C501B4011FD1811106C082E290E092
:101D10009093780480937704C501B401DF91CF914B
:101D20001F910F91FF90EF90DF90CF90BF90AF90F9
:101D30009F908F900895283008F027E03327DA012C
:101D4000990F311D87FD916000966105710539F489
:101D500032602E5F3D9330E32A95E1F708959F3F6F
:101D600030F080387105610509F03C5F3C5F3D93C0
:101D7000913008F08068911DDF93CF931F930F93EC
:101D8000FF92EF92192F987F9695E92F9695969549
:101D9000E90FFF27E758FE4F99273327EE24FF244A
:101DA000A701E70105900894079428F4360FE71E71
:101DB000F81E491F511D660F771F881F991F069433
:101DC000A1F70590079428F4E70EF81E491F561F47
:101DD000C11D770F881F991F661F0694A1F70590F4
:101DE000079428F4F80E491F561FC71FD11D880FEE
:101DF000991F661F771F0694A1F70590079420F49A
:101E0000490F561FC71FD81F990F661F771F881FBE
:101E10000694A9F784911095177041F0D695C7954F
:101E200057954795F794E7941A95C1F7EFE1F1E0DC
:101E300068941590159135916591959105907FE283
:101E40007395E118F10A430B560BC90BD009C0F783
:101E5000E10CF11E431F561FC91FD01D7EF47033C5
:101E600011F48A95E6CFE894015030F0080F0AF497
:101E70000027021708F4202F2395022F7A3328F029
:101E800079E37D932A95E9F710C07D932A9589F629
:101E9000069497956795379517951794E118F10A69
:101EA000430B560BC90BD00998F023957E9173957F
:101EB0007A3308F070E37C932013B8F77E91706159
:101EC0007D9330F0839571E37D9370E32A95E1F77C
:101ED0001124EF90FF900F911F91CF91DF919927DF
:101EE00087FD909508959111F6C0803219F08950C0
:101EF0008550D0F70895FB01DC014150504088F037
:101F00008D9181341CF08B350CF4805E65916134C9
:101F10001CF06B350CF4605E861B611171F3990B3C
:101F20000895881BFCCFDC01FC01672F719177239A
:101F3000E1F7329704C07C916D9370836291AE1784
:101F4000BF07C8F3089540D008F481E00895E894ED
:101F500009C097FB3EF490958095709561957F4FF1
:101F60008F4F9F4F9923A9F0F92F96E9BB2793959F
:101F7000F695879577956795B795F111F8CFFAF4AF
:101F8000BB0F11F460FF1BC06F5F7F4F8F4F9F4FE0
:101F900016C0882311F096E911C0772321F09EE83E
:101FA000872F762F05C0662371F096E8862F70E0A4
:101FB00060E02AF09A95660F771F881FDAF7880F7E
:101FC0009695879597F90895990F0008550FAA0BD4
:101FD000E0E8FEEF16161706E807F907C0F012163C
:101FE0001306E407F50798F0621B730B840B950B3F
:101FF00039F40A2661F0232B242B252B21F4089594
:102000000A2609F4A140A6958FEF811D811D089530
:102010000BD07BC06CD028F071D018F0952309F05C
:102020005DC062C01124A5C081D0A0F3959FD1F3FB
:10203000950F50E0551F629FF001729FBB27F00D76
:10204000B11D639FAA27F00DB11DAA1F649F6627CB
:10205000B00DA11D661F829F2227B00DA11D621F1A
:10206000739FB00DA11D621F839FA00D611D221FD4
:10207000749F3327A00D611D231F849F600D211DB8
:10208000822F762F6A2F11249F5750408AF0E1F05B
:1020900088234AF0EE0FFF1FBB1F661F771F881FA4
:1020A00091505040A9F79E3F510570F017C061C094
:1020B0005F3FECF3983EDCF3869577956795B7958F
:1020C000F795E7959F5FC1F7FE2B880F911D9695B9
:1020D000879597F9089599278827089597F99F6715
:1020E00080E870E060E008959FEF80EC08950024A0
:1020F0000A941616170618060906089500240A946D
:1021000012161306140605060895092E0394000CF2
:1021100011F4882352F0BB0F40F4BF2B11F460FF81
:1021200004C06F5F7F4F8F4F9F4F089557FD9058AA
:10213000440F551F59F05F3F71F04795880F97FB8B
:10214000991F61F09F3F79F0879508951216130645
:102150001406551FF2CF4695F1DF08C01616170674
:102160001806991FF1CF86957105610508940895A9
:10217000E894BB2766277727CB0197F9089509D004
:10218000A59F900DB49F900DA49F800D911D1124CB
:102190000895A29FB001B39FC001A39F700D811D40
:1021A0001124911DB29F700D811D1124911D089560
:1021B0005058BB27AA270ED0A8CF99DF30F09EDF5A
:1021C00020F031F49F3F11F41EF48ECF0EF4E09511
:1021D000E7FB84CFE92FAADF80F3BA176207730702
:1021E0008407950718F071F49EF5C2CF0EF4E095C0
:1021F0000B2EBA2FA02D0B01B90190010C01CA01C1
:10220000A0011124FF27591B99F0593F50F4503E6B
:1022100068F11A16F040A22F232F342F4427585F5D
:10222000F3CF469537952795A795F0405395C9F775
:102230007EF41F16BA0B620B730B840BBAF091502D
:10224000A1F0FF0FBB1F661F771F881FC2F70EC0CC
:10225000BA0F621F731F841F48F48795779567959F
:10226000B795F7959E3F08F0B3CF9395880F08F088
:102270009927EE0F9795879508950CD046CF3EDFAE
:1022800040F035DF30F021F45F3F19F027CF5111D6
:1022900070CF2ACF4BDF98F39923C9F35523B1F3BD
:1022A000951B550BBB27AA2762177307840738F0C5
:1022B0009F5F5F4F220F331F441FAA1FA9F333D024
:1022C0000E2E3AF0E0E830D091505040E695001CD8
:1022D000CAF729D0FE2F27D0660F771F881FBB1F94
:1022E000261737074807AB07B0E809F0BB0B802D6E
:1022F000BF01FF2793585F4F2AF09E3F510568F0BA
:10230000EDCE37CF5F3FECF3983EDCF386957795C3
:102310006795B795F7959F5FC9F7880F911D9695BB
:10232000879597F90895E1E0660F771F881FBB1F17
:10233000621773078407BA0720F0621B730B840BC4
:10234000BA0BEE1F88F7E095089504D06894B11198
:1023500010CF0895F3DE88F09F5790F0B92F99279A
:10236000B751A0F0D1F0660F771F881F991F1AF0A0
:10237000BA95C9F712C0B13081F0FADEB1E0089524
:10238000F7CE672F782F8827B85F39F0B93FCCF3A5
:10239000869577956795B395D9F73EF49095809596
:1023A000709561957F4F8F4F9F4F08950DDE08F414
:1023B0008FEF089509DE880B990B0895A1E21A2E7C
:1023C000AA1BBB1BFD010DC0AA1FBB1FEE1FFF1FD9
:1023D000A217B307E407F50720F0A21BB30BE40B29
:1023E000F50B661F771F881F991F1A9469F7609570
:1023F0007095809590959B01AC01BD01CF0108952A
:10240000EE0FFF1F881F8BBF0790F691E02D1994E8
:102410000F931F93CF93DF938230910510F482E0E6
:1024200090E0E0917B04F0917C0430E020E0B0E0AB
:10243000A0E0309799F42115310509F44AC0281B12
:10244000390B24303105D8F58A819B8161157105DE
:1024500089F1FB0193838283FE0111C04081518188
:102460000281138148175907E0F04817590799F47A
:10247000109761F012960C93129713961C93329654
:10248000CF01DF91CF911F910F91089500937B04AD
:1024900010937C04F4CF2115310551F042175307F6
:1024A00038F0A901DB019A01BD01DF01F801C1CFBC
:1024B000EF01F9CF90937C0480937B04CDCFFE0194
:1024C000E20FF31F819391932250310939832883BE
:1024D000D7CF2091790430917A04232B41F42091B5
:1024E00002023091030230937A0420937904209100
:1024F0000002309101022115310541F42DB73EB79C
:102500004091040250910502241B350BE09179049F
:10251000F0917A04E217F307A0F42E1B3F0B281763
:10252000390778F0AC014E5F5F4F2417350748F04C
:102530004E0F5F1F50937A044093790481939193D7
:102540009FCFF0E0E0E09CCFCF93DF930097E9F0DE
:10255000FC01329713821282A0917B04B0917C041B
:10256000ED0130E020E01097A1F420813181820F4D
:10257000931F2091790430917A042817390709F0C4
:1025800061C0F0937A04E0937904DF91CF910895CC
:10259000EA01CE17DF07E8F54A815B819E0141150C
:1025A0005105B1F7E901FB83EA8349915991C40FC1
:1025B000D51FEC17FD0761F4808191810296840F8D
:1025C000951FE90199838883828193819B838A8304
:1025D000F0E0E0E012968D919C9113970097B9F589
:1025E0002D913C911197CD010296820F931F20915E
:1025F000790430917A042817390739F6309751F564
:1026000010927C0410927B04B0937A04A093790416
:10261000BCCFD383C28340815181840F951FC817DB
:10262000D90761F44E5F5F4F88819981480F591F28
:10263000518340838A819B81938382832115310555
:1026400009F0B0CFF0937C04E0937B049ECFFD01B2
:10265000DC01C0CF13821282D7CF4F925F926F926C
:102660007F928F929F92AF92BF92CF92DF92EF9222
:10267000FF920F931F93CF93DF938C01009791F4F8
:10268000CB01DF91CF911F910F91FF90EF90DF90E1
:10269000CF90BF90AF909F908F907F906F905F9002
:1026A0004F90B6CEFC01E60FF71F9C012250310976
:1026B000E217F30708F4AAC0D901CD91DC91119774
:1026C000C617D70718F1C530D10570F0CE010497B1
:1026D0008617970748F0C61BD70B2297C193D19353
:1026E0006D937C93CF0130DFC801DF91CF911F91B3
:1026F0000F91FF90EF90DF90CF90BF90AF909F90A1
:102700008F907F906F905F904F9008955B01AC1A0F
:10271000BD0A4C018C0E9D1EA0917B04B0917C04DF
:10272000512C412CF12CE12C109731F5809179043A
:1027300090917A048815990509F05CC046165706F1
:1027400008F058C08091000290910102009741F476
:102750008DB79EB74091040250910502841B950BE2
:10276000E817F90708F052C0F0937A04E09379046F
:10277000F90171836083B8CF8D919C911197129666
:102780006C90129713967C901397A815B90559F57C
:102790006C0142E0C40ED11CCA14DB0420F1AC0170
:1027A0004A195B09DA011296159780F062827382EA
:1027B00051834083D9016D937C93E114F10471F04E
:1027C000D7011396FC93EE9312978ECF22968C0F1F
:1027D0009D1FF90191838083F301EFCFF0937C0477
:1027E000E0937B0481CF4816590608F42C017D0143
:1027F000D3019ACFCB010CDE7C01009739F0AE01FA
:10280000B80107D0C801A0DE87016ECF10E000E05C
:102810006BCFFB01DC0102C001900D924150504092
:10282000D8F70895FB01DC018D910190801901100A
:10283000D9F3990B0895FB01DC0101900D92002062
:10284000E1F7089511E0C1E9D1E000E005C0802F73
:10285000FE01D6DD2196011DC239D10780E00807AF
:06286000B1F7F894FFCF70
:1028660000007D04800000000000A002C401F90100
:10287600EC02690208025B020D0A006E616E0069D5
:102886006E66006F766600444143696E203A20000A
:10289600202C204441436F7574203A200020760096
:1028A6006D6B646972207E2F4465736B746F702F35
:1028B600666F6C6465726E616D6500202D2D2D202E
:1028C60053657474696E67207570204441430043F4
:1028D6006F6E74726F6C20726567697374657220AF
:1028E6003A2000202D2D2D20496E636572742074C8
:1028F60068652044414320696E7075742028696EAE
:1029060074656765722920636F646520696E20743B
:1029160068652072616E6765205B30202872656687
:102926004E292C20325E32302D313D31303438354F
:1029360037352028726566502D314C5342295D2E5D
:1029460000666F6C6465722F005343414E00202D64
:102956002D2D205343414E2066726F6D200020744A
:102966006F200020776974682073746570200020DA
:10297600616E642064656C61792000206D730023AC
:1029860000202D2D2D20454E44205343414E203A04
:1029960020746F74616C206E756D626572206F664F
:1029A6002076616C756573203A2000524553455474
:1029B60000203D3D3D20003000203A20554E414349
:1029C60043455054454420696E7075742E20506CF2
:1029D6006561736520696E6365727420616E206936
:1029E6006E746572676572206E756D6265722069B8
:1029F6006E207468652072616E6765203020746F82
:0A2A060020313034383537352E000A
:020000023000CC
:10E000000D9489F10D94B2F10D94B2F10D94B2F129
:10E010000D94B2F10D94B2F10D94B2F10D94B2F1F0
:10E020000D94B2F10D94B2F10D94B2F10D94B2F1E0
:10E030000D94B2F10D94B2F10D94B2F10D94B2F1D0
:10E040000D94B2F10D94B2F10D94B2F10D94B2F1C0
:10E050000D94B2F10D94B2F10D94B2F10D94B2F1B0
:10E060000D94B2F10D94B2F10D94B2F10D94B2F1A0
:10E070000D94B2F10D94B2F10D94B2F10D94B2F190
:10E080000D94B2F10D94B2F10D94B2F10D94B2F180
:10E090000D94B2F10D94B2F10D94B2F10D94B2F170
:10E0A0000D94B2F10D94B2F10D94B2F10D94B2F160
:10E0B0000D94B2F10D94B2F10D94B2F10D94B2F150
:10E0C0000D94B2F10D94B2F10D94B2F10D94B2F140
:10E0D0000D94B2F10D94B2F10D94B2F10D94B2F130
:10E0E0000D94B2F141546D656761323536300041AF
:10E0F000726475696E6F206578706C6F72657220DE
:10E1000073746B3530305632206279204D4C530099
:10E11000426F6F746C6F616465723E004875683F52
:10E1200000436F6D70696C6564206F6E203D200048
:10E130004350552054797065202020203D20005FF9
:10E140005F4156525F415243485F5F3D2000415658
:10E1500052204C696243205665723D20004743437C
:10E160002056657273696F6E203D20004350552024
:10E1700049442020202020203D20004C6F7720663D
:10E18000757365202020203D20004869676820665F
:10E190007573652020203D200045787420667573D6
:10E1A00065202020203D20004C6F636B2066757336
:10E1B000652020203D20004D617220203720323024
:10E1C000313300312E362E3800342E332E350056A2
:10E1D00023202020414444522020206F7020636F70
:10E1E00064652020202020696E73747275637469E1
:10E1F0006F6E2061646472202020496E74657272B3
:10E20000757074006E6F20766563746F7200726A49
:10E210006D702020006A6D70200057686174207056
:10E220006F72743A00506F7274206E6F7420737541
:10E2300070706F72746564004D7573742062652030
:10E2400061206C6574746572002000577269747483
:10E25000696E672045450052656164696E672045B7
:10E26000450045452065727220636E743D00504F35
:10E27000525400303D5A65726F2061646472003FF1
:10E280003D43505520737461747300403D454550C3
:10E29000524F4D207465737400423D426C696E6B41
:10E2A000204C454400453D44756D70204545505215
:10E2B0004F4D00463D44756D7020464C415348001B
:10E2C000483D48656C70004C3D4C69737420492F83
:10E2D0004F20506F72747300513D51756974005234
:10E2E0003D44756D702052414D00563D73686F7707
:10E2F00020696E7465727275707420566563746FF0
:10E30000727300593D506F727420626C696E6B00BD
:10E310002A0011241FBECFEFD1E2DEBFCDBF01E046
:10E320000CBF12E0A0E0B2E0EEE1FDEF03E00BBFB6
:10E3300002C007900D92A030B107D9F712E0A0E01B
:10E34000B2E001C01D92AE30B107E1F70F9460F367
:10E350000D948DFE01E20EBF0FEF0DBF11241FBE05
:10E360000D9460F30D9400F020E030E040ED57E0B4
:10E3700005C0FA013197F1F72F5F3F4F2817390792
:10E38000C0F308959C01260F311DC901A0E0B0E043
:10E390002F5F3F4FABBFFC018791882361F08093D3
:10E3A000C6008091C00086FFFCCF8091C0008064D1
:10E3B0008093C000EACF08958DE08093C6008091DD
:10E3C000C00086FFFCCF8091C00080648093C000B5
:10E3D0008AE08093C6008091C00086FFFCCF8091C8
:10E3E000C00080648093C00008950F94C2F10F9420
:10E3F000DCF10895FC019081992359F09093C600B7
:10E400008091C00086FFFCCF8091C0008064809323
:10E41000C0003196992379F70895282F982F929567
:10E420009F70892F805D8A3308F0895F8093C600D2
:10E430008091C00086FFFCCF8091C00080648093F3
:10E44000C000822F8F70982F905D9A3308F0995FEB
:10E450009093C6008091C00086FFFCCF8091C000E1
:10E4600080648093C00008959C01FB01853691056E
:10E470001CF46330710594F0C90164E670E00F94F8
:10E480002EFE605D7F4F6093C6008091C00086FFC6
:10E49000FCCF8091C00080648093C0002B30310598
:10E4A00014F43297B4F0C90164E670E00F942EFEC4
:10E4B0006AE070E00F942EFE605D7F4F6093C600AF
:10E4C0008091C00086FFFCCF8091C0008064809363
:10E4D000C000C9016AE070E00F942EFEC0968093E0
:10E4E000C6008091C00086FFFCCF8091C000806490
:10E4F0008093C00008951F93182F8EE692EE60E07F
:10E500000F94C2F11093C6008091C00086FFFCCF2B
:10E510008091C00080648093C0000F94DCF11F9153
:10E5200008952F923F924F925F926F927F928F92B7
:10E530009F92AF92BF92CF92DF92EF92FF920F9392
:10E540001F93DF93CF93CDB7DEB762970FB6F894E2
:10E55000DEBF0FBECDBF382E622ECA01DB015C01CB
:10E560006D01772420E2222E2E010894411C511CBB
:10E570008BC081E0A81680E0B80681E0C80680E084
:10E58000D80628F0C601AA27BB270F940DF2BB2797
:10E59000AD2D9C2D8B2D0F940DF28A2D0F940DF225
:10E5A0002092C6008091C00086FFFCCF8091C00001
:10E5B00080648093C0009DE29093C6008091C0006B
:10E5C00086FFFCCF8091C00080648093C0002092C1
:10E5D000C6008091C00086FFFCCF8091C00080649F
:10E5E0008093C00019828601750188249924A1E0D6
:10E5F0003A1651F03A1620F0B2E03B1661F409C029
:10E600000BBFF701779007C0C7010F9477FE782EF4
:10E6100002C0F7017080872D0F940DF22092C60082
:10E620008091C00086FFFCCF8091C0008064809301
:10E63000C000872D8052F401EF70F0708F3520F408
:10E64000E40DF51D708204C0E40DF51D8EE280839B
:10E650000894E11CF11C011D111D0894811C911CE2
:10E6600090E18916910409F0C2CF80E190E0A0E02A
:10E67000B0E0A80EB91ECA1EDB1E198AC2010F9493
:10E68000FAF10F94DCF16A94662009F072CF629679
:10E690000FB6F894DEBF0FBECDBFCF91DF911F91B3
:10E6A0000F91FF90EF90DF90CF90BF90AF909F9031
:10E6B0008F907F906F905F904F903F902F90089534
:10E6C0002F923F924F925F926F927F928F929F9282
:10E6D000AF92BF92CF92DF92EF92FF920F931F9370
:10E6E000DF93CF93CDB7DEB7CD53D1400FB6F894BB
:10E6F000DEBF0FBECDBF01E20EBF0FEF0DBF94B75F
:10E70000F894A89514BE80916000886180936000A1
:10E7100010926000789493FF05C0E0910002F091A0
:10E7200001021995279A2F9A8091C00082608093E8
:10E73000C00080E18093C40088E18093C1000000A4
:10E74000EE24FF24870144E0A42EB12CCC24DD2448
:10E7500024C0C5010197F1F70894E11CF11C011DCB
:10E76000111D21E2E2162EE4F20620E0020720E06D
:10E77000120718F031E0C32ED12CC801B70127ECE5
:10E780003BE140E050E00F9441FE611571058105C9
:10E79000910519F485B1805885B98091C00087FD35
:10E7A00003C0C114D104A9F2A6014F5F5F4FC25E3E
:10E7B000DE4F59834883CE51D140C25EDE4F8881FF
:10E7C0009981CE51D140019711F00D9410FEC05D9A
:10E7D000DE4F19821882C053D14060E0C15DDE4F28
:10E7E0001882CF52D14088249924C35DDE4F19820C
:10E7F0001882CD52D140C05EDE4F188219821A8233
:10E800001B82C052D140CE5CDE4F188219821A8220
:10E810001B82C253D140EE24FF2487010BBFF701B6
:10E8200007911691C45CDE4F19830883CC53D14005
:10E830000D940BFEC25EDE4F28813981CE51D1404E
:10E840002130310509F52091C600C25EDE4F1982E4
:10E850001882CE51D14022C02F5F3F4F4F4F5F4FA4
:10E86000213082E138078AE7480780E0580780F0C6
:10E87000C45CDE4FE881F981CC53D140EF5FFF4F9C
:10E8800019F0EE27FF27099420E030E040E050E047
:10E890008091C00087FFE0CF2091C600C35DDE4FAE
:10E8A00048815981CD52D1404F5F5F4FC35DDE4FEC
:10E8B00059834883CD52D140213209F063C64A3092
:10E8C000510508F05FC60894811C911C53E0851621
:10E8D000910409F059C600E010E018C081E280936D
:10E8E000C6008091C00086FFFCCF8091C00080648C
:10E8F0008093C0002F5F3F4F2931310579F70F9486
:10E90000DCF10F5F1F4F0530110519F020E030E0FA
:10E91000E5CF10920A0210920B0210920C02109294
:10E920000D02109206021092070210920802109235
:10E930000902109202021092030210920402109235
:10E9400005028FEE90EE60E00F94F5F180E191EE1C
:10E9500060E00F94C2F18091C00087FFFCCF9091DE
:10E96000C600903608F09F759032B8F09093C600BC
:10E970008091C00086FFFCCF8091C00080648093AE
:10E98000C000A0E2A093C6008091C00086FFFCCF2B
:10E990008091C00080648093C000983409F4D7C18E
:10E9A0009934B8F4923409F459C1933458F490333B
:10E9B00019F1903308F4E3C59F33A1F1903409F0C5
:10E9C000DEC5BDC0953409F470C1963409F0D7C5D1
:10E9D00098C1923509F42BC2933538F49C3409F46C
:10E9E000F5C1913509F0CBC518C2963509F445C279
:10E9F000993509F0C4C567C483E792EE62E00F94CD
:10EA0000F5F110920602109207021092080210927D
:10EA1000090210920A0210920B0210920C0210923C
:10EA20000D0213C18FE792EE62E00F94F5F18FEEC5
:10EA300090EE60E00F94F5F181E291EE60E00F94CA
:10EA4000C2F187EB91EE60E00F94F5F180E391EE77
:10EA500060E00F94C2F184EE90EE60E00F94F5F167
:10EA60008FE391EE60E00F94C2F186E090E061E008
:10EA700070E00F9434F20F94DCF18DE591EE60E0DC
:10EA80000F94C2F189EC91EE60E00F94F5F18EE401
:10EA900091EE60E00F94C2F183EC91EE60E00F9490
:10EAA000F5F18CE691EE60E00F94C2F18EE10F94E7
:10EAB0000DF288E90F940DF281E00F940DF20F949E
:10EAC000DCF18BE791EE60E00F94C2F119E0E0E039
:10EAD000F0E010935700E4918E2F0F940DF20F94F5
:10EAE000DCF18AE891EE60E00F94C2F1E3E0F0E03F
:10EAF00010935700E4918E2F0F940DF20F94DCF1D8
:10EB000089E991EE60E00F94C2F1E2E0F0E0109349
:10EB10005700E4918E2F0F940DF20F94DCF188EAE8
:10EB200091EE60E00F94C2F1E1E0F0E01093570045
:10EB30001491812F0F940DF20F94DCF107CF8BE825
:10EB400092EE62E00F94F5F18BE492EE60E00F94A8
:10EB5000F5F10F94DCF100E010E019C0C8016F2D51
:10EB60000F947FFEFF2031F489E492EE60E00F9471
:10EB7000C2F10BC0F092C6008091C00086FFFCCFAE
:10EB80008091C00080648093C0000F5F1F4FC80158
:10EB900081519F41A0E0B0E0ABBFFC01F790BAE229
:10EBA000FB1621F0E2E000301E07C1F60F94DCF105
:10EBB0000F94DCF187E592EE60E00F94F5F10F948D
:10EBC000DCF1CC24DD2400E010E01EC0C8010F946D
:10EBD00077FEF82E882331F489E492EE60E00F94FA
:10EBE000C2F10BC08093C6008091C00086FFFCCFAD
:10EBF0008091C00080648093C000FE1419F00894D6
:10EC0000C11CD11C0F5F1F4FC80181519F41A0E063
:10EC1000B0E0ABBFFC01E790FAE2EF1621F022E092
:10EC20000030120799F60F94DCF10F94DCF182E6C4
:10EC300092EE60E00F94C2F1C60161E070E00F94C3
:10EC400034F20F94DCF10F94DCF110920202109276
:10EC50000302109204021092050278CE89E992EE26
:10EC600062E00F94F5F1279A2F9A16C02F9880E052
:10EC700090E0E0EDF7E03197F1F7019684369105E9
:10EC8000C1F72F9A80E090E0E0EDF7E03197F1F7DF
:10EC9000019684369105C1F78091C00087FFE6CFC9
:10ECA0008091C00087FFFCCF64C485EA92EE62E0E9
:10ECB0000F94F5F140910202509103026091040219
:10ECC0007091050281E020E10F9491F2809102029F
:10ECD00090910302A0910402B091050280509F4FD1
:10ECE000AF4FBF4F8093020290930302A0930402A0
:10ECF000B093050280509041A040B04008F426CE69
:10ED0000A4CF83EB92EE62E00F94F5F140910602FE
:10ED100050910702609108027091090280E020E1A1
:10ED20000F9491F28091060290910702A09108023F
:10ED3000B091090280509F4FAF4FBF4F80930602A2
:10ED400090930702A0930802B0930902FFCD80ECD4
:10ED500092EE62E00F94F5F183E792EE60E00F949B
:10ED6000F5F18FE792EE60E00F94F5F18BE892EE0B
:10ED700060E00F94F5F189E992EE60E00F94F5F10F
:10ED800085EA92EE60E00F94F5F183EB92EE60E09D
:10ED90000F94F5F180EC92EE60E00F94F5F187ECC2
:10EDA00092EE60E00F94F5F188ED92EE60E00F9442
:10EDB000F5F18FED92EE60E00F94F5F18AEE92EEB0
:10EDC00060E00F94F5F183E093EEBDCD87EC92EE19
:10EDD00062E00F94F5F181E40F947BF282E40F94EA
:10EDE0007BF283E40F947BF284E40F947BF285E45E
:10EDF0000F947BF286E40F947BF287E40F947BF20E
:10EE000088E40F947BF28AE40F947BF28BE40F94F6
:10EE10007BF28CE40F947BF299CD88ED92EE62E068
:10EE20000F94F5F1772473948824992409C48FED05
:10EE300092EE62E00F94F5F140910A0250910B02BC
:10EE400060910C0270910D0282E020E10F9491F22A
:10EE500080910A0290910B02A0910C02B0910D02D8
:10EE600080509F4FAF4FBF4F80930A0290930B0289
:10EE7000A0930C02B0930D0269CD8AEE92EE62E08F
:10EE80000F94F5F184EE90EE60E00F94F5F18FECC5
:10EE900091EE60E00F94F5F1662477244301CC5D98
:10EEA000DE4F19821882C452D140D401C301B695F5
:10EEB000A79597958795CA5DDE4F88839983AA8326
:10EEC000BB83C652D140CC5DDE4FA881B981C4520C
:10EED000D1401196CC5DDE4FB983A883C452D14096
:10EEE000CD0162E070E00F9434F2B0E2B093C6005E
:10EEF0008091C00086FFFCCF8091C0008064809329
:10EF0000C000EDE2E093C6008091C00086FFFCCF18
:10EF10008091C00080648093C000F0E2F093C6004E
:10EF20008091C00086FFFCCF8091C00080648093F8
:10EF3000C000CA5DDE4FE880F9800A811B81C6529D
:10EF4000D140BB27A12F902F8F2D0F940DF2CA5DBA
:10EF5000DE4F8881C652D1400F940DF2B0E2FB2EF5
:10EF6000F092C6008091C00086FFFCCF8091C00067
:10EF700080648093C0000DE30093C6008091C000C0
:10EF800086FFFCCF8091C00080648093C00010E2B7
:10EF90001093C6008091C00086FFFCCF8091C00016
:10EFA00080648093C0008BBEF3012791C65DDE4F65
:10EFB0002883CA52D140A22EBB24CC24DD2408943D
:10EFC000611C711C811C911C8BBEF3018791282E42
:10EFD0003324442455240894611C711C811C911C09
:10EFE0008BBEF3013791C55DDE4F3883CB52D140E4
:10EFF0000894611C711C811C911C8BBEF30147910C
:10F00000C45DDE4F4883CC52D140ADEFEA2EAFEF66
:10F01000FA2EAFEF0A2FAFEF1A2F6E0C7F1C801E57
:10F02000911E142D032DF22CEE24EA0CFB1C0C1D5A
:10F030001D1D0F940DF220E22093C6008091C000A8
:10F0400086FFFCCF8091C00080648093C000C65DC5
:10F05000DE4F8881CA52D1400F940DF230E23093D6
:10F06000C6008091C00086FFFCCF8091C000806404
:10F070008093C000C45DDE4F8881CC52D1400F9494
:10F080000DF240E24093C6008091C00086FFFCCFA5
:10F090008091C00080648093C000C55DDE4F888190
:10F0A000CB52D1400F940DF250E25093C6008091A4
:10F0B000C00086FFFCCF8091C00080648093C000B8
:10F0C0008FEFE8168FEFF80680E0080780E018075A
:10F0D00031F484E092EE60E00F94C2F1DFC0D80119
:10F0E000C7018070907CA070B0708050904CA040A0
:10F0F000B040D1F52FEF3FE340E050E0E222F322B1
:10F1000004231523CA5DDE4FA880B980CA80DB8046
:10F11000C652D140AE0CBF1CC01ED11EAA0CBB1CD7
:10F12000CC1CDD1C8EE092EE60E00F94C2F1BB2798
:10F13000A12F902F8F2D0F940DF28E2D0F940DF285
:10F1400030E23093C6008091C00086FFFCCF8091F2
:10F15000C00080648093C0004EE34093C60080915D
:10F16000C00086FFFCCF87C08EE09EEFA0E0B0E03D
:10F17000E822F9220A231B239CE0E91694E9F90608
:10F1800090E0090790E0190709F088C0C45DDE4FE0
:10F19000A881CC52D140EA2EFF2400E010E0102FCD
:10F1A0000F2DFE2CEE24C55DDE4FB881CB52D14031
:10F1B000EB0EF11C011D111DD601C501817090706F
:10F1C000A070B070DC0199278827E80EF91E0A1F8D
:10F1D0001B1F20EF30E040E050E0A222B322C42207
:10F1E000D52241E1AA0CBB1CCC1CDD1C4A95D1F7F1
:10F1F000EA0CFB1C0C1D1D1D81E090E0A0E0B0E0BE
:10F20000282239224A225B2235E1220C331C441C7D
:10F21000551C3A95D1F7E20CF31C041D151D57013E
:10F220006801AA0CBB1CCC1CDD1C85E192EE60E0E1
:10F230000F94C2F1C801AA27BB270F940DF2BB2778
:10F24000A12F902F8F2D0F940DF28E2D0F940DF274
:10F2500090E29093C6008091C00086FFFCCF809121
:10F26000C00080648093C000AEE3A093C60080918C
:10F27000C00086FFFCCF8091C00080648093C000F6
:10F28000C601AA27BB270F940DF2BB27AD2D9C2DDD
:10F290008B2D0F940DF28A2D0F940DF20F94DCF14B
:10F2A000CC5DDE4FE881F981C452D140F99709F471
:10F2B0004DCBF4E0EF2EF12C012D112D6E0C7F1CA7
:10F2C000801E911EF2CD83E093EE62E00F94F5F183
:10F2D0008AE192EE60E00F94C2F18091C00087FF56
:10F2E000FCCF1091C6001F751093C6008091C0001E
:10F2F00086FFFCCF8091C00080648093C0000F9493
:10F30000DCF1812F81548A3108F036C1163409F4BA
:10F3100095C0173490F4133409F44EC0143430F40B
:10F320001134F1F0123409F01DC130C0143409F465
:10F3300059C0153409F016C16BC01A3409F4C4C0A1
:10F340001B3438F4173409F48FC0183409F00AC19B
:10F35000A1C01B3409F4D2C01C3409F003C1E8C0B9
:10F360008FEF81B90DC082B1809582B980E090E0C5
:10F37000E0EDF7E03197F1F70196883C9105C1F790
:10F380008091C00087FFEFCF12B8EFC08FEF84B934
:10F390000DC085B1809585B980E090E0E0EDF7E0A3
:10F3A0003197F1F70196883C9105C1F78091C00033
:10F3B00087FFEFCF15B8D9C08FEF87B90DC088B1DF
:10F3C000809588B980E090E0E0EDF7E03197F1F7C3
:10F3D0000196883C9105C1F78091C00087FFEFCF6F
:10F3E00018B8C3C08FEF8AB90DC08BB180958BB9A7
:10F3F00080E090E0E0EDF7E03197F1F70196883C8E
:10F400009105C1F78091C00087FFEFCF1BB8ADC059
:10F410008FEF8DB90DC08EB180958EB980E090E0F0
:10F42000E0EDF7E03197F1F70196883C9105C1F7DF
:10F430008091C00087FFEFCF1EB897C08FEF80BBD1
:10F440000DC081B3809581BB80E090E0E0EDF7E0F6
:10F450003197F1F70196883C9105C1F78091C00082
:10F4600087FFEFCF11BA81C08FEF83BB0DC084B38C
:10F47000809584BB80E090E0E0EDF7E03197F1F714
:10F480000196883C9105C1F78091C00087FFEFCFBE
:10F4900014BA6BC08FEF809301010FC080910201FD
:10F4A00080958093020180E090E0E0EDF7E03197F5
:10F4B000F1F70196883C9105C1F78091C00087FF64
:10F4C000EDCF1092020151C08FEF809304010FC065
:10F4D0008091050180958093050180E090E0E0ED4A
:10F4E000F7E03197F1F70196883C9105C1F78091DB
:10F4F000C00087FFEDCF1092050137C08FEF8093DA
:10F5000007010FC08091080180958093080180E079
:10F5100090E0E0EDF7E03197F1F70196883C910536
:10F52000C1F78091C00087FFEDCF109208011DC088
:10F530008FEF80930A010FC080910B01809580931B
:10F540000B0180E090E0E0EDF7E03197F1F70196F4
:10F55000883C9105C1F78091C00087FFEDCF1092E4
:10F560000B0103C085E292EEEEC98091C00087FFD7
:10F57000FCCF8091C600EAC988E392EEE4C98CE131
:10F5800091EEE1C988249924933011F1943028F444
:10F59000913089F09230B8F408C0953061F195301F
:10F5A000F0F0963009F048C043C02B3109F042C951
:10F5B00091E06BE13FC96227C15DDE4F2883CF52E6
:10F5C000D14092E037C9B22FA0E0622793E032C960
:10F5D000822F90E0A82BB92B622794E02BC92E3004
:10F5E00009F039C3622795E0C05DDE4F19821882A9
:10F5F000C053D1401FC9E1E0F0E0EC0FFD1FC05D3A
:10F60000DE4F08811981C053D140E00FF11F2083E4
:10F610000F5F1F4FC05DDE4F19830883C053D14079
:10F6200062270A171B0709F005C9D80196E002C92D
:10F63000261709F010C303C0973009F0FBC87724E0
:10F640009981933109F412C19431C8F4963009F4C8
:10F65000D8C0973050F4923009F406C1933009F4C1
:10F660006DC0913009F059C253C0913109F477C08F
:10F67000923108F0BBC0903109F04FC2F5C098310B
:10F6800009F487C0993150F4953109F4EFC09531F0
:10F6900008F4C6C1963109F040C2C2C19A3109F4DA
:10F6A0006CC09A3108F491C09B3109F45BC09D3164
:10F6B00009F033C29D81903359F48F81882311F46E
:10F6C0009EE11CC0813011F091E018C098E916C08D
:10F6D000892F807591F0903539F4E0E0F0E089E011
:10F6E0008093570094910AC0983539F4E3E0F0E034
:10F6F00089E080935700949101C090E01A821B82A8
:10F700008D818C831D829E831F8227E030E009C299
:10F710001A8288E08B8381E48C8386E58D8382E581
:10F720008E8389E48F8383E5888780E589878FE5E9
:10F730008A8782E38B872BE030E0F3C18A818139AD
:10F7400041F0823941F0803911F48FE005C080E04A
:10F7500003C082E001C08AE01A828B8344C0772410
:10F76000739482C08D81882311F48EE12CC0813086
:10F7700011F081E028C088E926C01A82E1E0F0E0BB
:10F7800089E08093570084918B831C8224E030E0D1
:10F79000C8C18B81803589F48C81883039F4E2E0EE
:10F7A000F0E089E08093570084910DC0E0E0F0E044
:10F7B00089E080935700849106C0E3E0F0E089E09F
:10F7C0008093570084911A82DFCF8D81836C99E0FA
:10F7D000E1E0F0E0082E90935700E89507B600FCB2
:10F7E000FDCF1A821B8223E030E09BC180EC8A832C
:10F7F000CE5CDE4F188219821A821B82C253D1401E
:10F800008EC18A8190E0A0E0B0E0582F44273327D2
:10F8100022278B8190E0A0E0B0E0DC0199278827C7
:10F82000282B392B4A2B5B2B8D8190E0A0E0B0E098
:10F83000282B392B4A2B5B2B8C8190E0A0E0B0E089
:10F84000BA2FA92F982F8827282B392B4A2B5B2BCF
:10F85000220F331F441F551FC05EDE4F288339839C
:10F860004A835B83C052D1401A8259C13A81C95C34
:10F87000DE4F3883C753D140CA5CDE4F1882C6536F
:10F88000D1408B81C82EDD24CA5CDE4F488159816E
:10F89000C653D140C42AD52A933109F082C0CE5C28
:10F8A000DE4F88819981AA81BB81C253D1408050AB
:10F8B000904CA340B04030F583E0CE5CDE4FE88052
:10F8C000F9800A811B81C253D140F70100935B008C
:10F8D00080935700E89507B600FCFDCFCE5CDE4F65
:10F8E000088119812A813B81C253D14000501F4FAA
:10F8F0002F4F3F4FCE5CDE4F088319832A833B8313
:10F90000C253D140C05EDE4F488159816A817B81FC
:10F91000C052D140DE011B9631E08C9111962C91A2
:10F9200011971296C75CDE4F2883C953D140C85C3B
:10F93000DE4F1882C853D14090E0C85CDE4FE881AA
:10F94000F981C853D1408E2B9F2B0C01FA01609393
:10F950005B0030935700E89511244E5F5F4F6F4F67
:10F960007F4F0EEFE02E0FEFF02ECE0CDF1CC114F8
:10F97000D10499F685E0C05EDE4F088119812A81A5
:10F980003B81C052D140F80120935B008093570027
:10F99000E89507B600FCFDCF81E180935700E8951C
:10F9A00035C0C05EDE4F88819981AA81BB81C0527B
:10F9B000D140B695A795979587957C018601ABE0D8
:10F9C000AA2EB12CAC0EBD1E0BC0D5016D915D01F0
:10F9D000C7010F947FFE0894E11CF11C01501040F8
:10F9E0000115110591F7A60160E070E0440F551F65
:10F9F000661F771FC05EDE4FE880F9800A811B8199
:10FA0000C052D1404E0D5F1D601F711F1A82C05E33
:10FA1000DE4F488359836A837B83C052D1407FC0C5
:10FA2000FA80C55CDE4FF882CB53D140C65CDE4F16
:10FA30001882CA53D1408B81C82EDD24C65CDE4FAC
:10FA400008811981CA53D140C02AD12A1A828981DA
:10FA5000BE016D5F7F4F843121F59601C05EDE4FA0
:10FA6000E880F9800A811B81C052D1400BBFF701A9
:10FA700087919691DB018C9311969C936E5F7F4FDB
:10FA8000D801C7010296A11DB11DC05EDE4F88835B
:10FA90009983AA83BB83C052D14022503040F1F6F3
:10FAA00036C0C05EDE4F288139814A815B81C052F9
:10FAB000D1400894C108D108760100E010E0089414
:10FAC000C11CD11C0894E11CF11C011D111DE20E8A
:10FAD000F31E041F151F21BDBB27A52F942F832FB5
:10FAE00082BD2F5F3F4F4F4F5F4FF89A80B5DB01CC
:10FAF0008D93BD012E153F054007510761F7C05E8C
:10FB0000DE4F288339834A835B83C052D1409601FC
:10FB10002D5F3F4FFB01108204C080EC8A8322E0FE
:10FB200030E08BE18093C6008091C00086FFFCCF5F
:10FB30008091C00080648093C000C15DDE4FF88179
:10FB4000CF52D140F093C6008091C00086FFFCCF19
:10FB50008091C00080648093C000432F3093C60022
:10FB60008091C00086FFFCCF8091C00080648093AC
:10FB7000C000922F2093C6008091C00086FFFCCF6A
:10FB80008091C00080648093C0008EE08093C600A6
:10FB90008091C00086FFFCCF8091C000806480937C
:10FBA000C00065E1C15DDE4FE880CF52D1406E25D7
:10FBB00069276427FE01319610C090819093C6009A
:10FBC0008091C00086FFFCCF31968091C000806498
:10FBD0008093C0006927215030402115310569F715
:10FBE0006093C6008091C00086FFFCCF8091C0006A
:10FBF00080648093C00085B1805885B9772081F4F6
:10FC0000C15DDE4F0881CF52D1400F5FC15DDE4F35
:10FC10000883CF52D14090E0A0E0B0E00D941AF4F8
:10FC200027982F9880E090E020ED37E0F901319798
:10FC3000F1F7019684369105C9F700008091C00064
:10FC40008D7F8093C00081E180935700E895EE2777
:10FC5000FF270994FFCF90E00D941AF497FB092E2B
:10FC600007260AD077FD04D02ED006D000201AF443
:10FC7000709561957F4F0895F6F7909581959F4F08
:10FC80000895A1E21A2EAA1BBB1BFD010DC0AA1FDD
:10FC9000BB1FEE1FFF1FA217B307E407F50720F0F5
:10FCA000A21BB30BE40BF50B661F771F881F991F70
:10FCB0001A9469F760957095809590959B01AC01B9
:10FCC000BD01CF010895AA1BBB1B51E107C0AA1FAC
:10FCD000BB1FA617B70710F0A61BB70B881F991FED
:10FCE0005A95A9F780959095BC01CD010895F99991
:10FCF000FECF92BD81BDF89A992780B50895262F31
:10FD0000F999FECF1FBA92BD81BD20BD0FB6F89400
:0EFD1000FA9AF99A0FBE01960895F894FFCF63
:040000033000E000E9
:00000001FF
